{
  "contractName": "terminator",
  "abi": [
    {
      "constant": true,
      "inputs": [],
      "name": "addrWinner",
      "outputs": [
        {
          "name": "",
          "type": "address"
        }
      ],
      "payable": false,
      "stateMutability": "view",
      "type": "function"
    },
    {
      "constant": true,
      "inputs": [],
      "name": "addrPlayer1",
      "outputs": [
        {
          "name": "",
          "type": "address"
        }
      ],
      "payable": false,
      "stateMutability": "view",
      "type": "function"
    },
    {
      "constant": true,
      "inputs": [],
      "name": "addrPlayer2",
      "outputs": [
        {
          "name": "",
          "type": "address"
        }
      ],
      "payable": false,
      "stateMutability": "view",
      "type": "function"
    },
    {
      "inputs": [],
      "payable": false,
      "stateMutability": "nonpayable",
      "type": "constructor"
    },
    {
      "anonymous": false,
      "inputs": [],
      "name": "GameDrawEvent",
      "type": "event"
    },
    {
      "anonymous": false,
      "inputs": [
        {
          "indexed": false,
          "name": "winner",
          "type": "address"
        }
      ],
      "name": "GameOverEvent",
      "type": "event"
    },
    {
      "constant": false,
      "inputs": [
        {
          "name": "chosen",
          "type": "uint8"
        }
      ],
      "name": "playGame",
      "outputs": [],
      "payable": false,
      "stateMutability": "nonpayable",
      "type": "function"
    }
  ],
  "bytecode": "0x6060604052341561000f57600080fd5b60008060006101000a81548173ffffffffffffffffffffffffffffffffffffffff021916908373ffffffffffffffffffffffffffffffffffffffff1602179055506000600160006101000a81548173ffffffffffffffffffffffffffffffffffffffff021916908373ffffffffffffffffffffffffffffffffffffffff1602179055506000600260006101000a81548173ffffffffffffffffffffffffffffffffffffffff021916908373ffffffffffffffffffffffffffffffffffffffff1602179055506106a2806100e36000396000f300606060405260043610610062576000357c0100000000000000000000000000000000000000000000000000000000900463ffffffff168063306120121461006757806384288eac146100bc57806389749c0414610111578063985d4ac314610166575b600080fd5b341561007257600080fd5b61007a61018c565b604051808273ffffffffffffffffffffffffffffffffffffffff1673ffffffffffffffffffffffffffffffffffffffff16815260200191505060405180910390f35b34156100c757600080fd5b6100cf6101b2565b604051808273ffffffffffffffffffffffffffffffffffffffff1673ffffffffffffffffffffffffffffffffffffffff16815260200191505060405180910390f35b341561011c57600080fd5b6101246101d7565b604051808273ffffffffffffffffffffffffffffffffffffffff1673ffffffffffffffffffffffffffffffffffffffff16815260200191505060405180910390f35b341561017157600080fd5b61018a600480803560ff169060200190919050506101fd565b005b600260009054906101000a900473ffffffffffffffffffffffffffffffffffffffff1681565b6000809054906101000a900473ffffffffffffffffffffffffffffffffffffffff1681565b600160009054906101000a900473ffffffffffffffffffffffffffffffffffffffff1681565b600080600073ffffffffffffffffffffffffffffffffffffffff166000809054906101000a900473ffffffffffffffffffffffffffffffffffffffff1673ffffffffffffffffffffffffffffffffffffffff1614156102be57336000806101000a81548173ffffffffffffffffffffffffffffffffffffffff021916908373ffffffffffffffffffffffffffffffffffffffff16021790555082600260146101000a81548160ff021916908360028111156102b457fe5b0217905550610671565b600073ffffffffffffffffffffffffffffffffffffffff16600160009054906101000a900473ffffffffffffffffffffffffffffffffffffffff1673ffffffffffffffffffffffffffffffffffffffff1614156106705733600160006101000a81548173ffffffffffffffffffffffffffffffffffffffff021916908373ffffffffffffffffffffffffffffffffffffffff160217905550600260149054906101000a900460ff16600281111561037157fe5b915082600281111561037f57fe5b905082600281111561038d57fe5b600260149054906101000a900460ff1660028111156103a857fe5b14156104625760008060006101000a81548173ffffffffffffffffffffffffffffffffffffffff021916908373ffffffffffffffffffffffffffffffffffffffff1602179055506000600160006101000a81548173ffffffffffffffffffffffffffffffffffffffff021916908373ffffffffffffffffffffffffffffffffffffffff1602179055507f9aa22833013d58de4e459a2ccbcb67114226128381317344d8834bed3ca265dd60405160405180910390a161066f565b7fffffffffffffffffffffffffffffffffffffffffffffffffffffffffffffffff818303148061049457506002818303145b15610585576000809054906101000a900473ffffffffffffffffffffffffffffffffffffffff16600260006101000a81548173ffffffffffffffffffffffffffffffffffffffff021916908373ffffffffffffffffffffffffffffffffffffffff1602179055507f4f8fef0bf48f69f5a92588fd4320184091bc93e2abf99158029469e3c575ac54600260009054906101000a900473ffffffffffffffffffffffffffffffffffffffff16604051808273ffffffffffffffffffffffffffffffffffffffff1673ffffffffffffffffffffffffffffffffffffffff16815260200191505060405180910390a161066e565b600160009054906101000a900473ffffffffffffffffffffffffffffffffffffffff16600260006101000a81548173ffffffffffffffffffffffffffffffffffffffff021916908373ffffffffffffffffffffffffffffffffffffffff1602179055507f4f8fef0bf48f69f5a92588fd4320184091bc93e2abf99158029469e3c575ac54600260009054906101000a900473ffffffffffffffffffffffffffffffffffffffff16604051808273ffffffffffffffffffffffffffffffffffffffff1673ffffffffffffffffffffffffffffffffffffffff16815260200191505060405180910390a15b5b5b5b5050505600a165627a7a72305820090216865316159840d8469ede5b0071e8a8f229d4ea23ae8d52da61f403599c0029",
  "source": "pragma solidity ^0.4.18;\n\n    /**\n    * Example script for the Ethereum development 非诚勿扰 分歧终端机\n    */\n\ncontract terminator {\n\tenum GAMETOOL { hammer, clipper, hanky}\n\taddress public addrPlayer1;\n\taddress public addrPlayer2;\n\taddress public addrWinner;\n\tGAMETOOL toolPlayer1;\n\n    /**\n    * The logs that will be emitted in every step of the contract's life cycle\n    */\n\tevent GameDrawEvent();\n\tevent GameOverEvent(address winner);\n\n    /**\n    * The contract constructor\n    */\n\tfunction terminator() public {\n\t\taddrPlayer1 = address(0);\n\t\taddrPlayer2 = address(0);\n\t\taddrWinner = address(0);\n\t}\n\n    /**\n    * play the game \n    */\n\tfunction playGame(GAMETOOL chosen) public {\n\t\tif(addrPlayer1 == address(0)) \n\t\t{\n\t\t\taddrPlayer1 = msg.sender;\n\t\t\ttoolPlayer1 = chosen;\n\t\t}\n\t\telse if(addrPlayer2 == address(0))\n\t\t{\n\t\t\taddrPlayer2 = msg.sender;\n\t\t\tint chosen1 = int(toolPlayer1);\n\t\t\tint chosen2 = int(chosen);\n\t\t\tif(toolPlayer1==chosen)\n\t\t\t{\n\t\t\t\t//draw, reset the game\n\t\t\t\taddrPlayer1 = address(0);\n\t\t\t\taddrPlayer2 = address(0);\n\t\t\t\tGameDrawEvent();\n\t\t\t}\n\t\t\t//else if(toolPlayer1-chosen==-1 || toolPlayer1-chosen==2)\n\t\t\telse if(chosen1-chosen2==-1 || chosen1-chosen2==2)\n\t\t\t{\n\t\t\t\taddrWinner = addrPlayer1;\n\t\t\t\tGameOverEvent(addrWinner);\n\t\t\t}\n\t\t\telse\n\t\t\t{\n\t\t\t\taddrWinner = addrPlayer2;\n\t\t\t\tGameOverEvent(addrWinner);\n\t\t\t}\n\t\t}\n\n    }\n\n}",
  "sourcePath": "D:\\dev_base\\truffle\\terminator\\contracts\\terminator.sol",
  "compiler": {
    "name": "solc",
    "version": "0.4.19+commit.c4cbbb05.Emscripten.clang"
  },
  "schemaVersion": "2.0.0",
  "updatedAt": "2018-03-28T14:45:03.814Z"
}